:100000000C9463000C948B000C948B000C948B006C
:100010000C948B000C948B000C948B000C948B0034
:100020000C948B000C948B000C948B000C94C506E4
:100030000C948B000C948B000C948B000C948B0014
:100040000C9482070C948B000C94590A0C94A00A0F
:100050000C948B000C948B000C948B000C948B00F4
:100060000C948B000C948B000000000024002700EF
:100070002A0000000000250028002B0000000000DE
:1000800023002600290004040404040404040202DA
:100090000202020203030303030301020408102007
:1000A0004080010204081020010204081020000012
:1000B0000007000201000003040600000000000029
:1000C0000000FD007D0C11241FBECFEFD8E0DEBF85
:1000D000CDBF11E0A0E0B1E0ECECFBE102C0059087
:1000E0000D92A631B107D9F715E0A6E1B1E001C044
:1000F0001D92A534B107E1F710E0C6ECD0E004C0D2
:100100002297FE010E94E00DC23CD107C9F70E9470
:10011000CD0C0C94E40D0C9400008532910539F45B
:1001200085B5887F85BD85B5862B85BD08958E32C2
:10013000910559F480918100887F8093810080919E
:100140008100862B809381000895813A910551F4B6
:100150008091B100887F8093B1008091B100862B9F
:100160008093B10008950F931F93CF93DF93EC0119
:100170008B01FB016081718161157105C9F1FC0181
:1001800020E030E007C0819191914817590739F07C
:100190002F5F3F4F26173707B4F32FEF3FEFCB0109
:1001A00001972817390721F4E8013983288320C0F3
:1001B00026173707ECF437FD1BC0F9013196EE0F17
:1001C000FF1FEC0FFD1FD901AA0FBB1FAC0FBD1FF6
:1001D00006C0819191918D939D932F5F3F4FE801D0
:1001E000888199810197281739079CF3998388831F
:1001F000DF91CF911F910F910895CF93DF93C0EFBF
:10020000D1E0CE010E945105239682E0C431D80787
:10021000C1F7DF91CF910895EF92FF920F931F9353
:10022000CF93DF9304E112E0C0E0D0E034E6E32EA8
:10023000F12CF801E192F1928F01CE01880F991F04
:100240008C0F9D1F80519E4F0E946B052196CB30D5
:10025000D10579F710E0812F61E00E94EE081F5F61
:100260001533C9F710922C0310922B031092270418
:100270001092260410927602109277021092780261
:1002800010927902DF91CF911F910F91FF90EF9023
:10029000089586E295E040E051EE60E070E00E9453
:1002A000E90A0E940C010895482F80917E02282FB0
:1002B00030E0C901880F991FFC01EC5EFD4F0190F1
:1002C000F081E02DE436F10561F5FC01E20FF31F4A
:1002D000442369F070917F0260E080918002680F92
:1002E000711DCF0180519E4F0E949B0508C06091F7
:1002F0007F02CF0180519E4F70E00E94D705E091B0
:100300007E02F0E080917F02EE0FFF1FDF01A45D0F
:10031000BD4F8C9311961C92EC5BFD4F8083118234
:1003200008953197E336F105B8F4FC01E45DFD4F23
:1003300080917F0280831182809174029091750276
:10034000FC01EE0FFF1FE45AFD4F3183208301961D
:100350009093750280937402089586E295E00E945E
:10036000D50B181619068CF586E295E00E94060C4E
:1003700080937C0220917A0230917B022F5F3F4F65
:1003800030937B0220937A022130310501F58A3ABD
:1003900069F180916D0490916E04019690936E04C2
:1003A00080936D0486E295E06AEA0E94410C86E241
:1003B00095E061E00E94410C86E295E06DE10E94CB
:1003C000410C10927B0210927A0240E019C0223058
:1003D000310529F4809316011092170107C02330CC
:1003E000310524F0F901E658FD4F808340E080910B
:1003F00016019091170102962817390709F441E078
:10040000842F08956F927F928F929F92AF92BF92A6
:10041000CF92DF92EF92FF920F931F93CF93DF93D0
:100420008091760290917702A0917802B091790242
:100430000196A11DB11D8093760290937702A0933F
:100440007802B09379020E94AD01882309F4B5C106
:1004500080917D028E3009F4F5C08F3058F58730D9
:1004600009F48DC0883098F4843009F460C0853078
:1004700038F4882309F44CC0823009F093C14FC08E
:10048000853009F45BC0863009F08CC16AC08B30BE
:1004900009F4B8C08C3038F4893009F4A8C08A3027
:1004A00009F080C172C08C3009F495C08D3009F01C
:1004B00079C1B1C0873109F42FC1883198F48131F5
:1004C00009F4FAC0823138F48F3009F4CCC080319D
:1004D00009F068C1DBC0853109F40DC1863109F02E
:1004E00061C115C18A3109F432C18B3138F48831C8
:1004F00009F416C1893109F055C115C18C3109F4CF
:1005000040C08C3108F438C18D3F09F04BC148C15F
:1005100080917E0260917F020E94140943C1609124
:100520007F0280917E0270E00E948E083BC1809124
:100530007E0260917F020E94EE0834C180917E02AB
:1005400060917F0220E432E44FE050E00E94BB095A
:100550006093690470936A0480936B0490936C04B5
:1005600021C180917E0223E0829FC001112460910D
:100570007F0280519E4F70E00E94BE0613C180E052
:1005800001C081E00E9454010DC180917E02282F9C
:1005900030E0F901EE0FFF1FEC5EFD4F808191818D
:1005A00001978336910508F0FDC0F901EE0FFF1F9A
:1005B000DF01AC5BBD4F8D919C91E45DFD4F91835C
:1005C000808340917E028CE592E064E772E050E027
:1005D0000E94B300E7C0E0917E02F0E0EE0FFF1F43
:1005E000EC5EFD4F80917F0280831182DBC08091A1
:1005F0007E0223E0829FC001112480519E4F0E9401
:100600006B05D0C060917F0280917E0290E070E027
:100610000E948D00C7C0A0917E02B0E02091260408
:1006200030912704F901EE0FFF1FEA5FFB4FB18302
:10063000A083AA0FBB1FA85BBB4F8D919C91119704
:10064000816050C040917E0286E094E066E274E0F2
:1006500050E00E94B300E0917E02F0E0EE0FFF1F39
:10066000E85BFB4F23C080912B0390912C03FC018E
:10067000EE0FFF1FE154FD4F20917E022083118277
:10068000019690932C0380932B038CC040917E02A3
:100690008FEB92E06BE273E050E00E94B300E091D8
:1006A0007E02F0E0EE0FFF1FE756FC4F8081918144
:1006B0008E7F9183808376C0A0917E02B0E02091EE
:1006C000260430912704F901EE0FFF1FEA5FFB4F6C
:1006D000B183A083AA0FBB1FA85BBB4F8D919C91D8
:1006E000119782608D939C932F5F3F4F3093270427
:1006F0002093260457C090917E0280E020917F02D3
:10070000820F911D90930101809300014BC01092C4
:1007100001011092000146C081E08093050442C0AF
:10072000109205043FC086E295E00E946F0B64EFD3
:1007300071E080E090E00E94D80740917E0250E096
:1007400060E070E086E295E00E94E90A2BC086E254
:1007500095E06AEA0E94410C86E295E062E00E9420
:10076000410C86E295E06AE10E94410C86E295E048
:1007700069E00E94410C16C090917E0280E02091B9
:100780007F02820F911D9093030180930201892BB8
:1007900049F481E090E0909303018093020102C04C
:1007A0000E940C0180E4EDE7F2E0DF011D928A95E2
:1007B000E9F710927B0210927A02209102013091A7
:1007C000030140E050E060917602709177028091E1
:1007D0007802909179020E948D0D61157105810555
:1007E000910529F4CFEBD2E0EE24FF247DC01CE577
:1007F000812E12E0912EAA24BB24B4E66B2E712C1C
:1008000039C18091000190910101892BF1F00E9482
:10081000CA07E881F981EE0FFF1FEE0FFF1FE85EA8
:10082000FE4F2081318142815381621B730B840B07
:10083000950B209100013091010140E050E06217DA
:1008400073078407950708F44BC088810E946809E4
:100850009093BE028093BD02E881F981EE0FFF1FE5
:10086000E35DFC4F208131812817390721F4809105
:100870000504882349F586E295E06AEA0E94410C66
:1008800086E295E063E00E94410C86E295E061E03B
:100890000E94410C86E295E068810E94410C86E24C
:1008A00095E06091BD020E94410C088119810E946F
:1008B000CA07000F111F000F111F085E1E4FF8011D
:1008C0006083718382839383E881F981EE0FFF1F38
:1008D000E35DFC4F8091BD029091BE0291838083C5
:1008E0000894E11CF11C229680912B0390912C031B
:1008F000E816F9060CF485CFC6E0D4E000E010E07D
:1009000049C088810E946C089093BE028093BD020A
:10091000E881F981EE0FFF1FE85DFB4F20813181F7
:100920002817390721F480916804882329F586E285
:1009300095E06AEA0E94410C86E295E064E00E943C
:10094000410C86E295E063E00E94410C86E295E06E
:1009500068810E94410C6091BD027091BE02672FB8
:10096000770F770B86E295E00E94410C86E295E0D6
:100970006091BD020E94410CE991F991EE0FFF1FB9
:10098000E85DFB4F8091BD029091BE029183808310
:100990000F5F1F4F809126049091270408171907B5
:1009A0000CF4AFCF24CFD401CD90DC90F601EE0F44
:1009B000FF1FDF01AC5EBD4F8D919C91DF01AC5BF1
:1009C000BD4FED90FC90E45DFD4FC081D181EC16F0
:1009D000FD0609F441C0F301E81BF90BCF019F01AB
:1009E000F3E0220F331FFA95E1F7880F991F280FC4
:1009F000391F442737FD4095542F6091760270913E
:100A0000770280917802909179020E948D0D611594
:100A100071058105910539F5EC16FD061CF0CFEF47
:100A2000DFEF02C0C1E0D0E08601000F111FC00E51
:100A3000D11EEC0EFD1EC60180519E4FB7010E94D3
:100A4000D7050C5B1D4FD8018D919C911197C80F54
:100A5000D91FCD93DC9307C08CE592E064E772E088
:100A6000A6010E94B3000894A11CB11CE2E0F0E0D2
:100A70008E0E9F1E8091740290917502A816B90681
:100A80000CF491CFDF91CF911F910F91FF90EF90D8
:100A9000DF90CF90BF90AF909F908F907F906F909E
:100AA0000895FC0180916F048C3090F480838F5FF7
:100AB00080936F04815090E0FC01EE0FFF1FE80F60
:100AC000F91FE059FB4F88EB9BE0928381830895E7
:100AD0008FEF80830895DC018C9190E0FC01EE0F94
:100AE000FF1FE80FF91FE059FB4F80818F7B808348
:100AF0008C916CE00E946E0D90E0AC01440F551F8C
:100B0000480F591F440F551F440F551F20E030E078
:100B1000C901840F951FFC01EE0FFF1FE80FF91F9D
:100B2000E059FB4F808186FD05C02F5F3F4F2C3081
:100B3000310571F70895FC0120812C30B8F58181D1
:100B4000992787FD909548E850E0481B590B440FC2
:100B5000551F440F551F6417750784F0828199272C
:100B600087FD909548E552E0481B590B440F551FEF
:100B7000440F551F641775070CF4AB0142505040E9
:100B8000CA01AA2797FDA095BA2F880F991FAA1FFF
:100B9000BB1F4FB7F89430E0F901EE0FFF1FE20FD3
:100BA000F31FE059FB4F928381834FBF0895AF92AB
:100BB000BF92CF92DF92EF92FF920F931F93CF934A
:100BC000DF93EC019B0182E0603278070CF048C0B3
:100BD00077FF03C020E030E005C0653B710514F0ED
:100BE00024EB30E000D000D0B901882777FD809554
:100BF000982F2981332727FD3095E8E8AE2EB12CB8
:100C0000A21AB30AAA0CBB1CAA0CBB1CCC24B7FCAE
:100C1000C094DC2CEA81FF27E7FDF09528E532E05F
:100C20002E1B3F0B220F331F220F331F442737FD8C
:100C30004095542FEDB7FEB721833283438354830D
:100C400020E030E040E050E004EBE02EF12C012DFC
:100C5000112D0E94060D9B010F900F900F900F9089
:100C6000CE01B9010E949B05DF91CF911F910F9199
:100C7000FF90EF90DF90CF90BF90AF900895CF920C
:100C8000DF92EF92FF921F93CF93DF93EC01162F29
:100C90007A01690188818C3008F064C0862F61E098
:100CA0000E94EE08888190E0FC01EE0FFF1FE80F24
:100CB000F91FE059FB4F1F738081807C812B80835B
:100CC00080E292E08E199F0964E070E00E947A0D44
:100CD000698380E699E08C199D0964E070E00E94C8
:100CE0007A0D6A83A8818A2F6CE00E946E0D682FAE
:100CF00070E0AB01440F551F460F571F440F551F9F
:100D0000440F551F20E030E0C901840F951FFC01FE
:100D1000EE0FFF1FE80FF91FE059FB4F808186FDA2
:100D200015C02F5F3F4F2C30310571F724C0109252
:100D3000800082E0809381001092850010928400F0
:100D4000B19A80916F00826080936F008A2F90E04B
:100D5000FC01EE0FFF1FE80FF91FE059FB4F8081E8
:100D6000806480838881DF91CF911F91FF90EF9005
:100D7000DF90CF900895672BD1F2E8CF40E252E0A8
:100D800020E639E00E943F0608951F920F920FB6A9
:100D90000F9211242F933F934F935F936F937F9301
:100DA0008F939F93AF93BF93EF93FF93809194049E
:100DB00087FF05C010928500109284002BC02091FF
:100DC0009404332727FD309580916F0490E0281715
:100DD000390704F580919404992787FD9095FC01CB
:100DE000EE0FFF1FE80FF91FE059FB4F808186FFD0
:100DF00011C080919404992787FD9095FC01EE0F16
:100E0000FF1FE80FF91FE059FB4F80818F7360E0EF
:100E10000E941409809194048F5F80939404209120
:100E20009404332727FD309580916F0490E02817B4
:100E300039070CF04EC0809194048C300CF049C0FE
:100E4000209184003091850080919404992787FD3A
:100E50009095FC01EE0FFF1FE80FF91FE059FB4FC3
:100E600081819281280F391F309389002093880057
:100E700080919404992787FD9095FC01EE0FFF1F48
:100E8000E80FF91FE059FB4F808186FF2AC080914F
:100E90009404992787FD9095FC01EE0FFF1FE80F42
:100EA000F91FE059FB4F80818F7361E00E941409A4
:100EB00018C080E49CE905C0809184009091850071
:100EC000049690938900809388008FEF8093940418
:100ED00008C0809184009091850084549C4948F317
:100EE000EBCFFF91EF91BF91AF919F918F917F9148
:100EF0006F915F914F913F912F910F900FBE0F9087
:100F00001F9018951F920F920FB60F9211242F93D6
:100F10003F938F939F93AF93BF9380919904909148
:100F20009A04A0919B04B0919C0430919D04019679
:100F3000A11DB11D232F2D5F2D3720F02D570196B8
:100F4000A11DB11D20939D048093990490939A0450
:100F5000A0939B04B0939C04809195049091960477
:100F6000A0919704B09198040196A11DB11D8093A2
:100F7000950490939604A0939704B0939804BF911E
:100F8000AF919F918F913F912F910F900FBE0F9036
:100F90001F9018958FB7F8942091990430919A0476
:100FA00040919B0450919C048FBFB901CA010895E0
:100FB0009B01AC017FB7F8948091950490919604C1
:100FC000A0919704B091980466B5A89B05C06F3FA7
:100FD00019F00196A11DB11D7FBFBA2FA92F982F1F
:100FE0008827860F911DA11DB11D62E0880F991FF2
:100FF000AA1FBB1F6A95D1F7BC012DC0FFB7F8949B
:101000008091950490919604A0919704B0919804D2
:10101000E6B5A89B05C0EF3F19F00196A11DB11DD3
:10102000FFBFBA2FA92F982F88278E0F911DA11DC2
:10103000B11DE2E0880F991FAA1FBB1FEA95D1F7E7
:10104000861B970B885E9340C8F221503040404089
:10105000504068517C4F211531054105510571F60D
:101060000895789484B5826084BD84B5816084BD20
:1010700085B5826085BD85B5816085BDEEE6F0E011
:10108000808181608083E1E8F0E01082808182606D
:101090008083808181608083E0E8F0E080818160EE
:1010A0008083E1EBF0E0808184608083E0EBF0E01E
:1010B000808181608083EAE7F0E0808184608083C2
:1010C000808182608083808181608083808180686C
:1010D00080831092C1000895982F8E3008F09E50A2
:1010E0009770809104018295880F880F807C892BEE
:1010F00080937C0080917A00806480937A00809154
:101100007A0086FDFCCF2091780040917900942FE1
:1011100080E030E0282B392BC90108951F93CF932D
:10112000DF93182FEB0161E00E94EE08209709F48D
:101130004AC0CF3FD10509F449C0E12FF0E0E255A4
:10114000FF4F84918330C1F0843028F4813051F016
:101150008230B1F50CC0863019F1873049F1843006
:1011600079F514C084B5806884BDC7BD33C084B52B
:10117000806284BDC8BD2EC080918000806880934D
:101180008000D0938900C093880024C080918000A3
:10119000806280938000D0938B00C0938A001AC035
:1011A0008091B00080688093B000C093B30012C0FB
:1011B0008091B00080628093B000C093B4000AC0F8
:1011C000C038D1051CF4812F60E002C0812F61E09E
:1011D0000E941409DF91CF911F910895482F50E08C
:1011E000CA0186569F4FFC0124914A575F4FFA016E
:1011F00084918823C1F0E82FF0E0EE0FFF1FE8593B
:10120000FF4FA591B491662341F49FB7F8948C9158
:10121000209582238C939FBF08959FB7F8948C915B
:10122000822B8C939FBF0895482F50E0CA018255AE
:101230009F4FFC012491CA0186569F4FFC01949157
:101240004A575F4FFA013491332309F440C02223F7
:1012500051F1233071F0243028F42130A1F02230F4
:1012600011F514C02630B1F02730C1F02430D9F484
:1012700004C0809180008F7703C0809180008F7DB3
:101280008093800010C084B58F7702C084B58F7DB5
:1012900084BD09C08091B0008F7703C08091B000F9
:1012A0008F7D8093B000E32FF0E0EE0FFF1FEE582C
:1012B000FF4FA591B4912FB7F894662321F48C9138
:1012C0009095892302C08C91892B8C932FBF089510
:1012D000682F70E0CB0182559F4FFC012491CB0118
:1012E00086569F4FFC0144916A577F4FFB019491B2
:1012F000992319F420E030E03CC0222351F123303F
:1013000071F0243028F42130A1F0223011F514C0FE
:101310002630B1F02730C1F02430D9F404C08091D8
:1013200080008F7703C0809180008F7D8093800044
:1013300010C084B58F7702C084B58F7D84BD09C08D
:101340008091B0008F7703C08091B0008F7D809333
:10135000B000892F90E0880F991F84589F4FFC019F
:10136000A591B4918C9120E030E0842311F021E02C
:1013700030E0C90108958F929F92AF92BF92CF92B1
:10138000DF92EF92FF920F931F93CF93DF93A82FDB
:10139000B0E0CD0186569F4FFC018490AA57BF4F05
:1013A000FD01D490662311F4992401C0982CCA0140
:1013B000B90120E83EE340E050E00E944F0D0E945A
:1013C0008D0D79018A016D2D70E0660F771F6458CD
:1013D0007F4FAA24BB246501FB01A591B4910BC0EA
:1013E000AE14BF04C006D10609F44FC00894A11C76
:1013F000B11CC11CD11C8C918821891589F30CC0AA
:10140000AE14BF04C006D10609F43FC00894A11C65
:10141000B11CC11CD11C03C0FB01A591B4918C91DE
:101420008821891569F720E030E040E050E0FB01B9
:10143000C591D4910FC0DA01C9018A0D9B1DAC1D65
:10144000BD1D8E159F05A007B107F9F02F5F3F4F17
:101450004F4F5F4F88818821891569F3CA01B9010F
:1014600028E032E540E050E00E944F0D6058714C9A
:101470008F4F9F4F20E83EE340E050E00E948D0DEB
:10148000C901DA019C01AD0104C020E030E040E078
:1014900050E0B901CA01DF91CF911F910F91FF90E8
:1014A000EF90DF90CF90BF90AF909F908F90089576
:1014B00008951F920F920FB60F9211242F933F930E
:1014C0004F938F939F93EF93FF934091C60020918A
:1014D000DE043091DF042F5F3F4F2F733070809117
:1014E000E0049091E1042817390759F0E091DE04F7
:1014F000F091DF04E256FB4F40833093DF042093EA
:10150000DE04FF91EF919F918F914F913F912F9129
:101510000F900FBE0F901F901895E0913205F0913B
:101520003305E05CFF4F8191919120813181821BD5
:10153000930B8F739070892B11F00E94580A0895B5
:101540001F920F920FB60F9211242F933F934F9338
:101550005F936F937F938F939F93AF93BF93EF931B
:10156000FF932091220530912305809124059091CD
:1015700025052817390731F48091C1008F7D8093AC
:10158000C10016C0E0912405F0912505EE51FB4FF6
:1015900040818091240590912505019660E470E0DA
:1015A0000E947A0D90932505809324054093C600F0
:1015B000FF91EF91BF91AF919F918F917F916F912B
:1015C0005F914F913F912F910F900FBE0F901F9001
:1015D0001895AF92BF92DF92EF92FF920F931F93F5
:1015E000CF93DF93EC017A018B01DD24403081EE53
:1015F000580780E0680780E0780711F0DD24D39475
:1016000091E0A92EB12CEC89FD89DD2069F0C5019E
:101610000E8C02C0880F991F0A94E2F7808360E065
:1016200079E08DE390E005C0108260E874E88EE117
:1016300090E0A80197010E948D0D2150304040405C
:101640005040569547953795279580E120303807CB
:1016500020F0DD2011F0DD24D6CFE889F989308330
:10166000EA89FB892083EE89FF89408121E030E00F
:10167000C9010A8C02C0880F991F0A94E2F7482B0F
:101680004083EE89FF894081C9010B8C02C0880F1D
:10169000991F0A94E2F7482B4083EE89FF89408125
:1016A000C9010C8C02C0880F991F0A94E2F7482BDD
:1016B0004083EE89FF8980810D8C02C0220F331F89
:1016C0000A94E2F7209528232083DF91CF911F9180
:1016D0000F91FF90EF90DF90BF90AF900895CF9360
:1016E000DF93DC011E968D919C911F97EC01C05CED
:1016F000DF4FFC01EE5BFF4F2881398180819181B2
:1017000028173907C9F75696ED91FC9157974081F4
:1017100021E030E0C9015A960C905A9702C0880F18
:10172000991F0A94E2F78095842380835696ED9161
:10173000FC9157974081C9015B960C905B9702C062
:10174000880F991F0A94E2F7809584238083569628
:10175000ED91FC9157974081C9015C960C905C9784
:1017600002C0880F991F0A94E2F780958423808332
:101770005696ED91FC91579780815D960C905D9700
:1017800002C0220F331F0A94E2F7209528232083FA
:101790001C96ED91FC911D97EE5BFF4F808191812E
:1017A00092938293DF91CF910895DC011C96ED9185
:1017B000FC911D97E05CFF4F2191319180819181D7
:1017C000281B390B2F733070C9010895DC011C965A
:1017D000ED91FC911D97E05CFF4F20813181E05439
:1017E000F040DF01AE5BBF4F8D919C9111972817A0
:1017F000390719F42FEF3FEF07C08D919C91E80F47
:10180000F91F8081282F30E0C9010895DC011C9662
:10181000ED91FC911D97E05CFF4F20813181E054F8
:10182000F040DF01AE5BBF4F8D919C91119728175F
:10183000390719F42FEF3FEF10C08D919C9111974C
:10184000E80FF91F20818D919C91119701968F735C
:10185000907011969C938E9330E0C9010895FC011D
:1018600086859785DC01A05CBF4FFC01EE5BFF4FD6
:101870002D913C9111978081918128173907C1F7EB
:101880000895CF93DF93EC01462FEE85FF85E05C52
:10189000FF4F80819181E054F040019660E470E058
:1018A0000E947A0D9C01DF01AE5BBF4F8D919C9130
:1018B000119728173907D1F3E05CFF4F80819181A0
:1018C000E054F040E80FF91F4083EE85FF85E05CAF
:1018D000FF4F31832083EE89FF89208181E090E0F2
:1018E0000D8C02C0880F991F0A94E2F7282B2083E1
:1018F00081E090E0DF91CF91089510922905109238
:10190000280588EE93E0A0E0B0E080932A0590934C
:101910002B05A0932C05B0932D0589E091E09093C1
:101920002705809326058EE994E0909333058093F4
:10193000320582EE94E0909335058093340585EC72
:1019400090E0909337058093360584EC90E0909377
:1019500039058093380580EC90E090933B058093A7
:101960003A0581EC90E090933D0580933C0586EC30
:1019700090E090933F0580933E0584E0809340057E
:1019800083E08093410587E08093420585E0809362
:10199000430581E0809344050895CF93DF930E942F
:1019A00031080E944901CDE8DAE00E940202209746
:1019B000E1F30E948D0AF9CFCF92DF92EF92FF926E
:1019C0000F931F93CF93DF937C016B018A01C0E0DB
:1019D000D0E00FC0D6016D916D01D701ED91FC9162
:1019E0000190F081E02DC7010995C80FD91F015062
:1019F00010400115110571F7CE01DF91CF911F91B4
:101A00000F91FF90EF90DF90CF9008952F923F922B
:101A10004F925F926F927F928F929F92AF92BF92FE
:101A2000CF92DF92EF92FF920F931F93DF93CF93AA
:101A3000CDB7DEB73B014C0119012A016D897E89C2
:101A40008F89988D6A197B098C099D09621A730A1E
:101A5000840A950AA40193010E944F0DE218F3082D
:101A600004091509A80197010E94AF0D2A0D3B1D1D
:101A70004C1D5D1DB901CA01CF91DF911F910F91DE
:101A8000FF90EF90DF90CF90BF90AF909F908F909E
:101A90007F906F905F904F903F902F900895629F3E
:101AA000D001739FF001829FE00DF11D649FE00D56
:101AB000F11D929FF00D839FF00D749FF00D659FB7
:101AC000F00D9927729FB00DE11DF91F639FB00DB6
:101AD000E11DF91FBD01CF0111240895991B79E083
:101AE00004C0991F961708F0961B881F7A95C9F7AE
:101AF0008095089597FB092E07260AD077FD04D01C
:101B000049D006D000201AF4709561957F4F089552
:101B1000F6F7909581959F4F0895A1E21A2EAA1B82
:101B2000BB1BFD010DC0AA1FBB1FEE1FFF1FA2178D
:101B3000B307E407F50720F0A21BB30BE40BF50B8A
:101B4000661F771F881F991F1A9469F76095709513
:101B5000809590959B01AC01BD01CF01089597FB45
:101B6000092E05260ED057FD04D0D7DF0AD0001C61
:101B700038F450954095309521953F4F4F4F5F4F2A
:101B80000895F6F790958095709561957F4F8F4FEA
:101B90009F4F0895AA1BBB1B51E107C0AA1FBB1F83
:101BA000A617B70710F0A61BB70B881F991F5A95E9
:101BB000A9F780959095BC01CD010895EE0FFF1F08
:0C1BC0000590F491E02D0994F894FFCFFB
:101BCC00320001000100000000410CDC0CD50B06BA
:061BDC000CE60B2F0C00CB
:00000001FF
